:1000000090C00000AAC00000A8C00000A6C0000068
:10001000A4C00000A2C00000A0C000009EC000005C
:100020009CC000003DC1000098C00000F9C700005E
:100030000C94BA08E2C0000090C000009BC1000010
:100040008CC000008AC0000088C0000086C000008C
:1000500084C0000082C0000080C0000092C5000083
:100060007CC000007AC0000078C0000076C00000AC
:1000700074C0000024034100720064007500690030
:100080006E006F0020004D006500670061002000D9
:1000900032003500360030000000320341007200AB
:1000A0006400750069006E006F0020002800770072
:1000B000770077002E00610072006400750069000F
:1000C0006E006F002E00630063002900000004032F
:1000D000090409023E00020100C0C8090400000131
:1000E0000202010005240001100424020605240672
:1000F0000001070582030800FF09040100020A004D
:1001000000000705040240000107058302400001CA
:100110001201100102000008412310000100010239
:10012000DC0111241FBECFEFD4E0DEBFCDBF11E054
:10013000A0E0B1E0E0EEF7E102C005900D92A23739
:10014000B107D9F713E0A2E7B1E001C01D92A63BC9
:10015000B107E1F7E8D30C94EE0B52CF429A81E05D
:100160008093880158980895429810928801589A6F
:100170000895CF93DF931F92CDB7DEB780917301BF
:1001800081111EC08FB78983F8944698109285001C
:10019000109284008FEF9FEF9093890080938800E6
:1001A00080E48093800082E08093810080916F00E2
:1001B000826080936F0081E08093730189818FBF9B
:1001C0000F90DF91CF910895CF93DF931F92CDB71A
:1001D000DEB78FB78983F894EFE6F0E080818D7FFA
:1001E00080831092800010928100109273018981A7
:1001F0008FBF0F90DF91CF9108951F920F920FB68E
:100200000F9211242F933F934F935F936F937F939C
:100210008F939F93AF93BF93EF93FF93809172015E
:1002200081112AC080918701823069F18091730128
:10023000882389F0ACE3B1E080E090E02D913D911E
:10024000FC01EE0FFF1FE95EFE4F31832083019614
:100250008231910599F7FF91EF91BF91AF919F91F5
:100260008F917F916F915F914F913F912F910F905F
:100270000FBE0F901F9018957CDF10927201809135
:100280008701823099F680917401882379F271DFB9
:100290001092740186E08093160110927601C6CF09
:1002A0001F920F920FB60F9211242F933F934F93EB
:1002B0005F936F937F938F939F93AF93BF93CF93EE
:1002C000EF93FF938091840090918500C3B12091BA
:1002D0008701223099F120918901E22FF0E0EE0FA1
:1002E000FF1FEE0FFF1FE056FE4F3381311120C07C
:1002F00031E0338391838083C2832F5F2F732093F8
:10030000890180917301811101C033DFFF91EF9169
:10031000CF91BF91AF919F918F917F916F915F919D
:100320004F913F912F910F900FBE0F901F901895F6
:10033000809176018F5F80937601E3CF8091730186
:10034000811116C0C0FD12C0469881E080937401EF
:1003500080917501982F915090937501811104C07F
:1003600080E6809375014D9AA895D0CF469AEDCF3F
:100370002BDFE8CF78941F920F920FB60F921124C3
:100380004F925F926F927F928F929F92AF92BF92A5
:10039000CF92DF92EF92FF920F931F932F933F9391
:1003A0004F935F936F937F938F939F93AF93BF937D
:1003B000CF93DF93EF93FF9340918A01842F90E0D6
:1003C000880F991F880F991FFC01E056FE4F23816B
:1003D000222309F47EC110918C01A0918D01B0916E
:1003E0008E01E0918F01F0919001609191017091E7
:1003F0009201E0909301F0909401A0909501B0904B
:10040000960180909701909098016090990170906A
:100410009A0140909B0150909C0114C0EC01C05681
:10042000DE4F1B824F5F4F73842F90E0880F991F20
:10043000880F991FEC01C056DE4F2B81102F22230D
:1004400009F423C1EC01C056DE4F0A8128813981AD
:10045000102710FF14C000FDA8C0E901CA1BDB0B68
:100460006E0158EFC50ED51E51E6C51659E0D506EA
:1004700008F4F1C0C0917601CF5FC093760111FFFF
:1004800014C001FD9EC0E901CE1BDF0B6E0158EFC9
:10049000C50ED51E51E6C51659E0D50608F49FC015
:1004A000C0917601CF5FC093760112FF14C002FDA8
:1004B00084C0E901C61BD70B6E0158EFC50ED51ECF
:1004C00051E6C51659E0D50608F4ADC0C0917601D5
:1004D000CF5FC093760113FF14C003FD70C0E90124
:1004E000CE19DF096E0158EFC50ED51E51E6C516AF
:1004F00059E0D50608F4A3C0C0917601CF5FC09340
:10050000760114FF14C004FD52C0E901CA19DB09C9
:100510006E0158EFC50ED51E51E6C51659E0D50639
:1005200008F4A5C0C0917601CF5FC093760115FF96
:1005300014C005FD3EC0E901C819D9096E0158EF84
:10054000C50ED51E51E6C51659E0D50608F453C0B0
:10055000C0917601CF5FC093760116FF14C006FDEF
:100560002AC0E901C619D7096E0158EFC50ED51E7C
:1005700051E6C51659E0D50608F449C0C091760188
:10058000CF5FC093760117FF49CF07FD7CC02419C8
:100590003509E901C850D740C136D940A0F02091B3
:1005A00076012F5F2093760139CFD90168CF5901A9
:1005B000BECF4901D2CF3901E6CFB9018CCF790145
:1005C000A0CFF90172CF20523340309336012093EF
:1005D0003501209186012F5F209386011FCFC052E5
:1005E000D340D0931E01C0931D01C0918001CF5F05
:1005F000C09380015ACFC052D340D0932E01C093F4
:100600002D01C0918401CF5FC0938401A6CFC05259
:10061000D340D0933201C0933101C0918501CF5FA7
:10062000C0938501B0CFC052D340D0932201C09374
:100630002101C0918101CF5FC09381014CCFC05295
:10064000D340D0932601C0932501C0918201CF5F92
:10065000C093820156CFC052D340D0931A01C093A9
:100660001901C0917F01CF5FC0937F0108CFC052B5
:10067000D340D0932A01C0932901C0918301CF5F59
:10068000C093830154CF2901C9CE00938C01B0934C
:100690008E01A0938D01F0939001E0938F017093F0
:1006A000920160939101F0929401E0929301B092D3
:1006B0009601A09295019092980180929701709274
:1006C0009A016092990150929C0140929B01409343
:1006D0008A01F8942091880030918900E0913B01D3
:1006E000F0E0EE0FFF1FE95EFE4F80819181820FE7
:1006F000931F9093890080938800789480913B01A8
:100700008F5F80933B01823108F462C010923B01FD
:1007100080E090E0B8E2A2E371E064E60AC06083A2
:10072000FC01E958FE4F1082A8950196883091058A
:1007300069F1282FFC01E158FE4F3081353678F7FA
:100740003081343691F7FC01E958FE4F30813F5F2C
:100750003083383250F3B083220F2F5F30E0220F06
:10076000331FF901E45CFE4F40815181F901E95EDC
:10077000FE4F51834083A093750170931601109230
:1007800076015C9801968830910599F68091750103
:10079000982F91509093750181110EC08091760130
:1007A000893128F01092760186E0809316018091BD
:1007B0001601809375014C9A80918B01982F91506E
:1007C00090938B01811104C088E180938B014D9A35
:1007D000FF91EF91DF91CF91BF91AF919F918F9159
:1007E0007F916F915F914F913F912F911F910F9149
:1007F000FF90EF90DF90CF90BF90AF909F908F9041
:100800007F906F905F904F900F900FBE0F901F9052
:10081000189504B600FC03C004B601FE35C014BE32
:100820003A9A4298509A589A80918701882399F170
:10083000549A559A5C9A5D9A14B885B18FEF85B930
:100840003E9A80918701823009F443C080918701EC
:10085000813019F48FEF80936B0080916800816084
:100860008093680088E10FB6F8948093600010923E
:1008700060000FBEA8958091600088618093600041
:1008800084E480936000089504B602FEC8CF81E03E
:1008900080937201C4CF22982A9A219A299885E3DD
:1008A0008A95F1F7000083B18470299A95E39A95AF
:1008B000F1F700001A9B11C0299895E39A95F1F77A
:1008C00000001A9910C081110EC082E08093870148
:1008D000AFCF81E080936B00B9CF299885E38A95EB
:1008E000F1F7000083B181E080938701A1CF87E613
:1008F00090E09093CD008093CC0086E08093CA0076
:100900001092C80088E18093C900539A5A9A8AB11C
:1009100080638AB98BB180638BB977D384E085BD5E
:100920005F9A579A089575DFE2DF2FB7F89485E252
:1009300093E09093A6038093A5039093A8038093DC
:10094000A7032FBF8FB7F894C0EAD2E0D09321035A
:10095000C0932003D0932303C09322038FBF7894C6
:1009600005E213E093E0E92E9FB7F8948091A90384
:100970009FBF8038F9F080E091E0E2D697FD1AC081
:10098000E091A503F091A60380838091A503909147
:10099000A60301969093A6038093A503855A9340DE
:1009A00009F482C09FB7F8948091A9038F5F809368
:1009B000A9039FBF8FB7F894F09024038FBFA89925
:1009C00004C080E68F1508F040C0A89A80912403E7
:1009D000882381F05D98E0929D010CC09FB7F89448
:1009E000809124038150809324039FBF80E091E095
:1009F00040D6FA94FF2089F0E0912203F09123037E
:100A00006191F0932303E0932203E052F34031F726
:100A1000D0932303C0932203E1CF80919D018823CB
:100A200041F080919D01815080939D01811101C011
:100A30005D9A80919E01882341F080919E018150B2
:100A400080939E01811101C05C9A9FB7F8948091B8
:100A5000A9039FBF811105C080E091E063D63ED518
:100A600083CFE091A703F091A8039191F093A8039D
:100A7000E093A703E55AF34091F02FB7F8948091E3
:100A8000A90381508093A9032FBF8091C80085FFDF
:100A9000FCCF9093CE005C98E0929E01DDCF109346
:100AA000A8030093A703E9CF1093A6030093A5031F
:100AB00079CF80E091E090C580E091E023C51F935D
:100AC000CF93DF93EC01EC89E150E23008F450C0A1
:100AD00010E08B89823009F441C08D89873009F498
:100AE00042C0883009F449C08630B1F11092C90083
:100AF0001092C8001092CA002F85388949895A89F6
:100B0000211581EE38074105510579F1CA01B90176
:100B1000969587957795679560587B47814E9F4F4F
:100B20003BD6215031093093CD002093CC00109357
:100B3000CA008F859889A989BA898115914EA10526
:100B4000B105E9F082E08093C80088E98093C9008C
:100B5000DF91CF911F9108951260C8CF18608D89E1
:100B6000873009F0BECF1460C1CF20E130E0DBCF89
:100B7000F0E0E159FE4F1081ACCF1660B7CF80E0B6
:100B8000E2CF1F920F920FB60F9211242F938F93E3
:100B90009F93EF93FF939091CE008EB3843051F0EA
:100BA000FF91EF919F918F912F910F900FBE0F901A
:100BB0001F901895E0912003F09121039083E0911C
:100BC0002003F0912103CF0101969093210380939C
:100BD00020038052934049F09FB7F89480912403FA
:100BE0008F5F809324039FBFDBCF80EA92E09283E4
:100BF0008183F2CFFC01858580FD02C05F9A089554
:100C00005F980895292F33272230310539F1233099
:100C10003105A9F02130310549F020E030E080E0D5
:100C200090E0FA0191838083C901089522E130E0C8
:100C300080E191E0FA0191838083C90108959927A9
:100C400081309105A1F082309105B9F0892B29F707
:100C5000EEECF0E0249130E0CF01E3CF2EE330E082
:100C600082ED90E0FA0191838083C9010895EAE959
:100C7000F0E0249130E0CF01D4CFE4E7F0E024911C
:100C800030E0CF01CECF8930910568F028E030E028
:100C900040E04F5F220F331F28173907D0F3842F0E
:100CA0008295807F089580E008958093E900EBEEBF
:100CB000F0E0808181608083EDEEF0E0108260934F
:100CC000EC0040838091EE00881F8827881F0895DC
:100CD0001092F40080E08093E9001092F0001092EE
:100CE000E8001092ED009091EB009E7F9093EB0056
:100CF0008F5F853081F708958091AE0387FD08C02E
:100D00008091E80080FD0CC08EB38111F9CF089569
:100D10008091E80082FD0AC08EB38111F9CF089559
:100D20008091E8008E778093E80008958091E80034
:100D30008B778093E800089595E68091EC0080FD24
:100D40001BC08091E80082FD1BC08EB38823D1F0C8
:100D50008EB38530C9F08091EB0085FD17C080917E
:100D6000E10082FFEACF8091E1008B7F8093E10078
:100D7000915019F784E008958091E80080FFE5CF55
:100D800080E0089582E0089583E0089581E0089569
:100D90002091B4033091B5032617370758F0611539
:100DA000710509F04AC02091E8002E772093E800F1
:100DB00020E030E050E02115310511F4552389F190
:100DC0004091E80043FD3DC04091E80042FD29C04C
:100DD0004EB34423A1F14EB3453069F14091E80090
:100DE00040FFE9CF4091F2002115310581F04830F4
:100DF00070F4FC0102C0483051F05191CF01509382
:100E0000F100215031094F5F21153105A1F751E063
:100E1000483009F050E04091E8004E774093E800F8
:100E2000CACF8091E80082FD0EC08EB3882339F0CE
:100E30008EB38530B1F783E008959B01BBCF82E08C
:100E4000089581E0089580E008952091B4033091E1
:100E5000B5032617370758F06115710509F04CC026
:100E60002091E8002E772093E80020E030E0AC01EC
:100E700090E02115310511F4992391F18091E8005A
:100E800083FD3EC08091E80082FD2AC08EB3882396
:100E9000A9F18EB3853071F18091E80080FFE9CF30
:100EA0008091F2002115310589F0883018F00EC0CC
:100EB000883061F0FA014F5F5F4FE491E093F100F9
:100EC000215031098F5F2115310591F791E088306C
:100ED00009F090E08091E8008E778093E800C9CF18
:100EE0008091E80082FD0EC08EB3882339F08EB366
:100EF0008530B1F783E008959B01B9CF82E0089572
:100F000081E0089580E008956115710529F420912C
:100F1000E8002B772093E800382F292F6115710501
:100F200021F18091E80083FD2EC08EB3882349F122
:100F30008EB3853021F18091E80082FFF2CFE32F5C
:100F4000F22F3E2F2F2F8091F200882341F08091C5
:100F5000F10081933E2F2F2F6150710991F78091FD
:100F6000E8008B778093E800D9CF8091E80080FD7E
:100F70000CC08EB3882329F08EB38530B1F783E09F
:100F8000089582E0089581E0089580E0089542D0B8
:100F900044D01EBA1092AC031092AB031092AA0375
:100FA00084E089BD89B5826089BD09B400FEFDCFAA
:100FB0008091D800982F9F779093D8008068809375
:100FC000D800809163008E7F809363008091D80069
:100FD0008F7D8093D8008091E0008E7F8093E00029
:100FE0008091E1008E7F8093E1008091E20081603A
:100FF0008093E2008091E100877F8093E1008091FF
:10100000E20088608093E2000895C1DF81E0809370
:10101000AD0308951092E20008951092E100089542
:101020001F920F920FB60F9211242F933F934F935D
:101030005F936F937F938F939F93AF93BF93EF9340
:10104000FF938091E10080FF04C08091E20080FD69
:1010500053C08091E10084FF27C08091E20084FFAB
:1010600023C084E089BD89B5826089BD09B400FED2
:10107000FDCF8091D8008F7D8093D8008091E100D2
:101080008F7E8093E1008091E2008F7E8093E2006A
:101090008091E20081608093E2008091AC03811135
:1010A00067C081E08EBB5AD88091E10083FF04C005
:1010B0008091E20083FD38C08091E10082FF04C08E
:1010C0008091E20082FD11C0FF91EF91BF91AF913D
:1010D0009F918F917F916F915F914F913F912F9150
:1010E0000F900FBE0F901F9018958091E1008B7F9D
:1010F0008093E100F2D1E8CF8091E1008E7F809370
:10110000E1008091E2008E7F8093E2008091E20016
:1011100080618093E2008091D80080628093D80043
:1011200019BC1EBA21D895CF8091E100877F8093AA
:10113000E10082E08EBB1092AC038091E1008E7FD3
:101140008093E1008091E2008E7F8093E2008091A5
:10115000E20080618093E200BBDD42E060E080E07D
:10116000A4DD8091F00088608093F000B6D1A4CF18
:1011700084E098CF1F920F920FB60F921124EF9236
:10118000FF920F931F932F933F934F935F936F9310
:101190007F938F939F93AF93BF93EF93FF93CF93DF
:1011A000DF931F92CDB7DEB789EEE82EF12CF70161
:1011B00080818770108200EF10E0F8019081977FA6
:1011C00090837894898322D0F894F7011082F801F3
:1011D0009081986090838981F70180830F90DF91DF
:1011E000CF91FF91EF91BF91AF919F918F917F919F
:1011F0006F915F914F913F912F911F910F91FF90B0
:10120000EF900F900FBE0F901F9018950F931F93A4
:10121000CF93DF93CDB7DEB7AC970FB6F894DEBFB0
:101220000FBECDBFEEEAF3E08091F100819323E0A1
:10123000E63BF207C9F78091AE032091AF0325305A
:1012400009F49FC018F1283009F4E1C0293009F4ED
:1012500080C0263009F4B6C02FDC8091E80083FFFF
:101260000AC08091EB0080628093EB008091E800DF
:10127000877F8093E800AC960FB6F894DEBF0FBE70
:10128000CDBFDF91CF911F910F910895213041F192
:1012900020F5803809F4DAC08238F1F68091B20383
:1012A0009091B303877099278093E9009091EB00A8
:1012B00095FB992790F91092E9008091E800877FCB
:1012C0008093E8009093F1001092F1008091E80083
:1012D0008E778093E80010DDC0CF233009F0BCCFBB
:1012E000882309F4A7C0823009F0B6CF8091B003FB
:1012F000811126C08091B2039091B3038770992722
:10130000009709F4AACF8093E9003091EB0030FFF9
:10131000A4CF233009F4DBC09091EB00906190934F
:10132000EB0021E030E001C0220F8A95EAF720931C
:10133000EA001092EA008091EB0088608093EB0055
:101340001092E9008091E800877F8093E800D4DC68
:1013500084CF811181CF8091B003823008F07DCF9E
:101360009091E800977F9093E8008093AC03C4DCF1
:101370008091AC03882309F4A8C084E08EBB99DB7C
:101380006CCF811169CF0091B0031091B1038091AE
:10139000E800877F8093E800AFDC04C08EB3882329
:1013A00009F45BCF8091E80080FFF8CF0F77112719
:1013B0000115110509F453C083E08EBB006800934A
:1013C000E3004BCF8058823008F046CF8091B003C5
:1013D0009091B1038C3D23E0920709F442C0AE0125
:1013E000455D5F4F6091B2030DDC009709F435CF86
:1013F0002091E800277F2093E800BC018BA59CA5E5
:1014000024DD8091E8008B778093E80026CF803838
:1014100009F022CF8091E800877F8093E8008091D7
:10142000AC038093F1008091E8008E778093E80010
:1014300063DC13CF8091B003813009F00ECF81E0DF
:10144000233009F080E08093AB037ACF9091AA0318
:101450008091AB03882309F430CF92602ECF82E0D5
:10146000ACCF83E08A838AE289834FB7F894DE01A8
:10147000139680E02EE031E2E22FF0E03093570047
:10148000E49180FF03C0E295EF702F5FEF709E2F15
:10149000905D9A3308F0995F9C9311961C92119776
:1014A00012968F5F843141F74FBF8091E800877FAC
:1014B0008093E8006AE270E0CE01019669DC8091D9
:1014C000E8008B778093E800C8CE83E057CF809107
:1014D000EB0080628093EB0033CF0895CF938EB3FF
:1014E000882359F0C091E900C7701092E9008091FB
:1014F000E80083FD04C0C093E900CF91089586DE23
:10150000FACF0895CF93DF93EC018091E80083FF39
:1015100009C0888190E02091B2033091B30328176D
:10152000390719F0DF91CF9108958091AF0381328F
:1015300069F1C0F48032B1F78091AE03813291F746
:101540008091E800877F8093E80067E070E0CE013B
:101550000F96DADCCE01B3DA8091E8008E778093C3
:10156000E800E0CF823231F18332E1F68091AE03C0
:101570008132C1F68091E800877F8093E800609116
:10158000B003CE01BEDFDF91CF91B6CB8091AE0329
:10159000813A41F68091E800877F8093E80067E018
:1015A00070E0CE010F96F4DB8091E8008B7780939A
:1015B000E800B8CF8091AE03813209F0B3CF8091BB
:1015C000E800877F8093E8008091B0038D87CE018B
:1015D00011DBDF91CF9190CB0F931F93CF93DF93CC
:1015E000EC010D96FC0189E0DF011D928A95E9F777
:1015F0002A813B818C818823B1F114E00981C901E2
:1016000042DB412F482B426061E8802F4EDB88236C
:1016100021F12E813F818885811127C010E00D8145
:10162000C90131DB412F482B426060E8802F3DDB50
:10163000882399F02A853B858C85811118C010E09C
:10164000C985C90120DB412F482B426061EC8C2FFA
:10165000DF91CF911F910F9128CB80E0DF91CF9147
:101660001F910F91089510E0C9CF14E0D8CF14E076
:10167000E7CF0F931F93CF93DF931F92CDB7DEB7C2
:101680002EB3243039F082E00F90DF91CF911F917B
:101690000F910895FC010785108921893289012B5A
:1016A000022B032B81F381818093E9008091E80074
:1016B00085FF04C06093F10080E0E6CF8091E800F0
:1016C0008E778093E800698337DB6981882391F303
:1016D000DBCF2EB3243011F082E00895FC01478562
:1016E000508961897289452B462B472BA9F381814B
:1016F0008093E9008091F200882349F09091E800FE
:101700008091E8008E778093E80095FF02C080E02A
:10171000089512DB8111E1CF9091E8009E779093BC
:10172000E80008952EB3243009F00895FC014785A0
:10173000508961897289452B462B472BB1F3C9CF5C
:101740002EB3243011F5FC014785508961897289D7
:10175000452B462B472BC9F085818093E90080916A
:10176000E80082FF12C08091F200882391F020915E
:10177000F10030E08091F200811109C08091E80011
:101780008B778093E800C90108952FEF3FEFC901DF
:1017900008952FEF3FEFEECFA1E21A2EAA1BBB1B3D
:1017A000FD010DC0AA1FBB1FEE1FFF1FA217B3072D
:1017B000E407F50720F0A21BB30BE40BF50B661F43
:1017C000771F881F991F1A9469F760957095809507
:1017D00090959B01AC01BD01CF010895F894FFCF16
:1017E0000003400000044000000208000000000068
:1017F000000000000000182003980820039808202B
:101800000378052003980820030609200398082080
:101810000398082003980820030852112003980811
:10182000200398082003E8032003980820030609F2
:1018300020039808200398082003980820030852E2
:101840004172647550504D76322E342E3062003025
:02185000200076
:00000001FF
